:020000021000EC
:108000000080002039C9010081C9010083C9010035
:108010000000000000000000000000000000000060
:1080200000000000000000000000000085C9010001
:10803000000000000000000087C9010089C901009C
:108040008BC901008BC901004D9301008BC9010050
:108050008BC90100000000000D9D01008BC90100CB
:10806000B9A8010079A9010039AA01008BC9010052
:108070008BC901008BC901008BC901008BC90100AC
:108080008BC9010071AB01008BC901008BC90100D4
:1080900055AC01008BC9010005C901008BC9010065
:1080A0008BC901008BC90100000000000000000026
:1080B00000000000000000000000000000000000C0
:1080C000164B002B00D1144B9D46402292029A1A67
:1080D000924600218B460F461348144A121A00F0AC
:1080E00067F80F4B002B00D098470E4B002B00D0A9
:1080F00098470020002104000D000D48002802D000
:108100000C4800E000BF00F02DF82000290000F02E
:108110003FF900F011F8C046000008000080002080
:1081200000000000000000006C20002078280020E3
:108130000000000000000000084B10B5041C002BDC
:1081400002D0002100E000BF054B1868836A002BB5
:1081500000D09847201C00F033F8C0460000000013
:108160004CD901000E4B70B500251E1C0D4CE41AB5
:10817000A410A54204D0AB00F35898470135F8E7A6
:1081800005F0D6FB084B00251E1C084CE41AA41071
:10819000A54204D0AB00F35898470135F8E770BD0D
:1081A0006C2000206C2000206C2000206C2000201F
:1081B000031C8218934202D019700133FAE770470A
:1081C000FEE7C04676DF70477ADF70477CDF704796
:1081D0007FDF7047A9DF704760DF70477047C04698
:1081E0000122014B1A707047D523002008B5011CED
:1081F0000022024804F066FC08BDC04698D9010080
:1082000070B50D1C161C0024002A07D0285D01F053
:108210008FFA0028FAD10134B442F7D30A2001F0D2
:1082200087FA0028FAD170BD10B5041C0A1C064854
:10823000211C04F047FC122C04D10123034A1178BD
:108240004B40137010BDC046B8D901006420002017
:1082500038B50378012B03D0002B07D0022B04D1B3
:1082600041680022124804F02DFC38BD114C124D1B
:108270002078281801F054FA22780132D2B2AB18D3
:10828000013B1B7822700A2B01D0132AEDD992B240
:10829000291C0A4804F00CFA0823021C011C9A430A
:1082A00003D00348002204F00DFC00232370DCE718
:1082B00098D90100D4230020D823002034250020A1
:1082C00010B5041C04F060F81848211C04F0BCF838
:1082D0002388112B25D01ED9132B0ED0522B08D159
:1082E000134B0021188800220023FFF773FF011EA3
:1082F0000CD1201C03F02AFF10BD0D4B85211888DE
:1083000000220023FFF764FF011EF2D0002209487B
:1083100004F0D8FBEDE7102BEBD1A288044B1A80B8
:10832000E7E70122024B52421A80E2E7342500209F
:108330006620002098D9010008B50378002B00D0F2
:1083400008BD064B3B211888FFF73CFF011EF7D004
:108350000022034804F0B6FBF2E7C0466620002086
:1083600098D9010008B5021C0249034804F0AAFB91
:1083700008BDC046EFBEADDE98D9010008B5031CAC
:108380000A1C0248191C04F09DFB08BD98D9010085
:10839000F0B556465F464D4644460023F0B4B3B0B0
:1083A0000093042100200522D44B02F0DBFED44EC2
:1083B000011E03D0301C002204F084FB01F06AFA95
:1083C000011E03D0301C002204F07CFB01F0C6FD2E
:1083D000011E03D0301C002204F074FBC9490820A0
:1083E0004822002304F05EFA011E03D0301C002254
:1083F00004F068FB26AC00210822201CFFF7D8FE01
:1084000001222378201C93432370FFF7E5FE011E11
:1084100003D0301C002204F055FBBB4804F068FA7E
:10842000011E03D0301C002204F04CFB0F2101225E
:1084300011AD2B788B43134310220B4013432B7049
:108440001AAB9846B14B40461A9304F055FB41468F
:1084500082B2281CFFF7BAFE011E03D0301C002296
:1084600004F030FB00210822201CFFF7A1FE10239E
:1084700023802C3363800023A3809133FF33201C9F
:10848000E380FFF7A1FE011E03D0301C002204F0A0
:1084900019FB00210422201CFFF78AFE9C4B211CA3
:1084A0009C48269304F000F8011E03D0301C0022E3
:1084B00004F008FB0CAB9A46974B0422191C50465B
:1084C0009B4604F0F5FA002130224046FFF770FE8B
:1084D0000223424613700023994643464A469A7047
:1084E000052342460021D370201C3022FFF760FE96
:1084F00001232382534663614B46EB606B60AB60A4
:10850000AB61EB612B62119301232B7340232B6131
:1085100074336B614B46211C009340462A1C7F4BF1
:1085200003F010FC011E03D0301C002204F0CAFA34
:1085300000211C22201CFFF73BFEA0229202626059
:10854000F02200231203A26003222693E381237406
:10855000734B201C6361734B2273A36103F0D8FE3D
:10856000011E03D0301C002204F0ACFA032003F0FB
:108570008DFC011E03D0301C002204F0A3FA5B46E0
:108580004246043383CB83C200232B80664B674A69
:10859000269380235B006360A260E360211C00954A
:1085A0004046634AFD3B00F063FF011E03D0301CD0
:1085B000002204F087FA5F4804F084FA04AB5A46BC
:1085C000191C103281CA81C1424607935B4606924C
:1085D0005246183383CB83C203CB03C200235246D7
:1085E0005372554B514606A81A1C984600F0E0FB02
:1085F000011E03D0301C002204F064FA06A800F02B
:108600003BFE08AB5A46191C2C3281CA81C10B9320
:108610005B462A1C0A94343313CB13C203CB03C228
:108620000023291C0AA842462B7200F0C1FB011E40
:1086300003D0301C002204F045FA0AA800F01CFE0A
:10864000A0220C213D4BD205D150022303A90B706F
:10865000002312208B70CB70394A03334B7001F02A
:1086600039FA011E03D0301C002204F02BFA12202C
:10867000012101F0EDFAA223A022DB00D205D65899
:10868000012398462F4B002599464346B603F60F23
:108690000127ACB2002B57D14B461B78002B06D0DC
:1086A00006A80121221C00F0CDFA1128F8D00AA852
:1086B0000021221C00F0C6FA1128F8D00AA80121D6
:1086C000221C00F0BFFA1128F8D0632D53DC002DD6
:1086D00056DDBB00DB193220ED1801F069F8A2234A
:1086E000A022DB00D205D3589B03DB0F012E3AD02A
:1086F0001E1C4346ACB2002BCED025E06C200020DF
:1087000098D90100EC240020C182010050574D008F
:10871000018201003425002050D90100DD810100D3
:1087200039830100ED810100D4220020EC230020D8
:1087300051820100C0D90100E1810100440700001D
:10874000298201006420002006A80021221C00F0DC
:1087500079FA1128A0D106A80021221C00F072FA93
:108760001128F1D098E7002BC2D141460122514097
:1087700088461E1CBDE7052301275B427F42AAE70E
:1087800005230127A7E7C04610B500290DD009230E
:10879000002A01D1181C10BD541E2240FAD182605B
:1087A00001608480C2600023F4E70E23F2E7C04634
:1087B000031C10B59C888068DA68121A0420944261
:1087C00000D210BDDA68002014401A681155DA682A
:1087D0000132DA60F5E7C04610B58468C268031C50
:1087E0000520944209D098689A8802401868825CF3
:1087F00000200A709A6801329A6010BD70B5161C8C
:108800000C1C8D18002A05DD2078013400F090FF43
:10881000AC42F9D1301C70BD10B50C1C201C00F00E
:108820007FFF0528FAD0012010BDC04670B50D4B62
:108830005A5C002A06D05A5C013AD2B25A545B5CA8
:10884000002B00D070BD0C1C074D8E007359022107
:10885000586802F027F87359201C1B68DB69984799
:10886000F0E7C0467028002050250020F8B55F468C
:1088700056464D4644462023F0B40568071CE85C84
:10888000884691469A4601F0BBFC2123E85C01F042
:10889000B7FC43465C0044443B68A4001E19307A90
:1088A00001F0AEFC707A222601F0AAFC4A460023B1
:1088B0007868414601F09AFFA95D214801F0F0FD7A
:1088C00001232C19207A9B468340A95D181C01F0D6
:1088D00067FE5B46607AA95D8340181C01F060FE6C
:1088E0006368002B1BD05346EB5C022178689846E6
:1088F00001F070FF134BAA5D9C46D200011C62443C
:10890000404601F041FC2023E85C01F061FC4B464D
:1089100063603CBC90469946A246AB46F8BD5346C0
:10892000EB5C414678689A4601F054FF054BAA5D1E
:108930009C46D200011C6244504601F025FCE2E74F
:10894000FF3F000000F00140F0B55F4656464D463F
:1089500044462023F0B483B0046801928246E05C70
:108960000D1C9B4601F04CFC21232227E05C01F00A
:1089700047FCE15D274801F093FD6B005E199946C5
:108980000123B600A619307A98468340E15D181C91
:1089900001F006FE4346707AE15D8340181C01F049
:1089A000FFFD019B002B22D05B46E35C0221984631
:1089B00053465868A66901F00DFF174BE25D9C46CF
:1089C000D200011C6244404601F0DEFB3604360C46
:1089D0002023E05C01F0FCFB4D44AD0064196660AF
:1089E00003B03CBC90469946A246AB46F0BD5B4600
:1089F000E65C5346291C586801F0ECFE064BE25D2C
:108A00009C46D200011C6244301C01F0BDFB0026D4
:108A1000DEE7C046FF3F000004F00140F8B55F46C6
:108A200056464D464446F0B4222604680D1C071CE9
:108A3000A15D2E48914601F033FD2023E05C9B466A
:108A40001F3B98468340A15D181C01F0A9FD21231E
:108A5000E05C9A4643468340A15D181C01F0A0FDEE
:108A6000A05D01F00BFD5B46E35C032178689B464B
:108A700001F0B0FE2A1C7B6810321B689200011CBA
:108A80009A18584601F080FB6B005D19AD0065191E
:108A90006B68994519D35346E05C43468340A15D1A
:108AA000181C01F0FDFC4B466B6078684A460321B8
:108AB000002301F09BFE2223E05C01F0C7FC3CBCDC
:108AC00090469946A246AB46F8BD5346E35C032167
:108AD0007868984601F07EFE061C286800F0BEFF0C
:108AE000311C021C404601F04FFBDCE7FF3F000059
:108AF000F0B54D4644465F4656462323F0B405681C
:108B000083B0EC5C1B3B022C07D0181C03B03CBCB0
:108B100090469946A246AB46F0BD4B009B465B187B
:108B20009B009846A8444346161C92465A680F1C60
:108B3000041C4368964254D05B7941498946C95C1C
:108B400011230029E1D1002A13D0AB699A4210D237
:108B5000391C321E01D09E426FD3FFF7F5FE022270
:108B6000494660684379CA54022101F089FE002316
:108B7000CBE7002E3AD0AB699E4258D32023E85C65
:108B800001F03EFB2123E85C01F03AFB5B46DB1978
:108B90009B009C462268019362449346107A01F040
:108BA0002FFB5B46587A01F02BFBAD69AE420ED32A
:108BB0002268019B94466344997A2D044B1E994187
:108BC0004346C9B2186800F059FF2B0C9A4652462A
:108BD00000236068391C01F009FE434652465A6082
:108BE000BDE75879EB69984700238EE72023E85CBE
:108BF00001F006FB2123E85C01F002FB5B46DD1976
:108C00002368AD005E19307A01F0FAFA707A01F04B
:108C1000F7FA23689C466544AB7A5942594143466A
:108C2000C9B2186800F02AFF00239A46CFE7201C3B
:108C3000391C321CFFF71AFE91E7FFF7EFFE8EE7B3
:108C400070280020F0B55F4656464D464446F0B4C5
:108C5000041C83B00E1C40680221171C01F0C0FDEB
:108C600023232568EA5C1B3B022A07D0181C03B0AB
:108C70003CBC90469946A246AB46F0BD0004000CB1
:108C80007843642103F082FE030498461B0C994646
:108C900073009F19BF00EF1979689B466368894587
:108CA00047D05B79414A9246D25C1123002ADDD13C
:108CB00082B2002914D0AB69994211D2201C311C18
:108CC000002A01D099456ED3FFF73EFE022251469D
:108CD00060684379CA54022101F0D2FD0023C5E740
:108CE000002A2BD0AB69994558D32023E85C01F0CA
:108CF00087FA2123E85C01F083FA5B469B199B000D
:108D00009C462268019362449346107A01F078FAF7
:108D10005B46587A01F074FAAD69A94530D24346F2
:108D20001D0C6068311C2A1C002301F05FFD7D6072
:108D3000CCE75879EB699847002397E72023E85C54
:108D400001F05EFA2123E85C01F05AFA5B469D19B6
:108D50002368AD009846A8444346187A01F050FABB
:108D60004346587A01F04CFA236838689C466544BB
:108D7000AB7A002559425941C9B200F07FFED0E7D5
:108D80002268019B94466344997A38684B1E994146
:108D90002D04C9B200F072FE2D0CC2E7201C311C5C
:108DA000FFF764FD92E7FFF739FE8FE77028002098
:108DB000F0B55F4656464D464446F0B48BB00029A8
:108DC0000DD0232306680824F35C002B09D0201C57
:108DD0000BB03CBC90469946A246AB46F0BD0B2476
:108DE000F5E790468946051C01F0B8F8002802D046
:108DF000043C8528EBD100F087FD002800D166E116
:108E0000FF23212220270021301CF355B3540132C7
:108E1000B354233AF172337273723260F175327562
:108E20007375F260203001F0A5F8002800D092E1BF
:108E3000301C213001F09EF8002800D08BE1301C5E
:108E4000223001F0F5F9002800D00BE1002782461E
:108E50004A46FBB20393BB00D458631C00D18FE099
:108E6000D31923221B7A04932B689B469B5C002B0F
:108E700000D1A2E15E4608242023F05CFF2801D047
:108E800001F016F92123F05CFF2801D001F010F960
:108E90002223F05CFF2801D001F066FA18239A46DD
:108EA000193B99460023FF279846B244307AFF28A1
:108EB00002D001F0FDF83772707AFF2802D001F07D
:108EC000F7F877723068431C03D000F093FD4B46EF
:108ED00033604346F3720C365645E7D1686801F0BB
:108EE00031FC74E7059B201C1C600C247C4300F0C3
:108EF00099FD201C0830584401F03CF8002800D0AF
:108F000075E1201C0930584401F034F8002800D0E5
:108F10006DE15C44207A01F073F9607A01F070F938
:108F2000237A391C6868069301F054FC059B07906E
:108F3000186800F093FD0799021C069801F024F9C7
:108F400002216868647A01F045FC059B0690186868
:108F500000F084FD0699021C201C01F015F9049B09
:108F6000012B00D16FE10C236A467B43127C5B44EA
:108F70009A720122281CDA7203990022FFF7B8FDC9
:108F8000012F6DD14B46B24A1B695446934200D81B
:108F900042E15908914200D840E19908914200D835
:108FA00042E1D908914200D83BE11909914200D829
:108FB00043E15909914200D83CE19909914200D816
:108FC00035E1D909914200D83AE11B0A934200D811
:108FD000BEE09F495B0809228B4200D8B9E000231C
:108FE00008A94B708B700333CB706B680A705B7988
:108FF0006868984A4B6001F053FB071E6ED14B46E0
:109000006868196901F02EFCB0618146686801F05A
:10901000DDFB012300934A46686802219A46033328
:1090200001F0FAFB0221686801F03CFC4346F36161
:109030006A6889495379CF54126888498A4200D1B5
:10904000D8E087498A4200D1DAE086498A4200D1D5
:10905000DCE0854A9B009D5001222323F254B6E6B2
:109060000127F5E62C68E05DFF2801D001F020F82B
:109070002123E05CFF2801D001F01AF82223E05CF4
:10908000FF2801D001F070F918239846193BFF26FC
:1090900099460027A044207AFF2802D001F008F862
:1090A0002672607AFF2802D001F002F8667220680A
:1090B000431C03D000F09EFC4B462360E7720C3447
:1090C0004445E8D1686801F03DFB04247FE600F0E8
:1090D000E1FB0324002800D079E691E620232C68E8
:1090E000E05CFF2801D000F0E3FF2123E05CFF28D3
:1090F00001D000F0DDFF2223E05CFF2801D001F069
:1091000033F918239846E7339946013BFF3B9A46CB
:109110000026A044207AFF2803D000F0C9FF4B4668
:109120002372607AFF2803D000F0C2FF4B466372BF
:109130002068431C03D000F05DFC53462360E672B8
:109140000C344445E6D1686801F0FCFA3C1C3EE66C
:109150000822D2B243E720232C68E05CFF2801D02C
:1091600000F0A6FF2123E05CFF2801D000F0A0FF63
:109170002223E05CFF2801D001F0F6F8182398467E
:10918000193BFF2799460026A044207AFF2802D0E9
:1091900000F08EFF2772607AFF2802D000F088FF6F
:1091A00067722068431C03D000F024FC4B46236008
:1091B000E6720C344445E8D184E77A00D219920073
:1091C000111C59444B600591033306A90B722B689F
:1091D000201C9C466244927A534253414B720123B5
:1091E0008B7208A900F09AFB002800D17AE62E685D
:1091F000042441E652461D4B1A606B685B7928E7F0
:1092000052461B4B1A606B685B7922E75246194B3A
:109210001A606B685B791CE70022E0E60122D2B29B
:10922000DDE60322D2B2DAE60222D2B2D7E6062285
:10923000D2B2D4E60522D2B2D1E60422D2B2CEE630
:109240000722D2B2CBE6059B186800F033FC8AE611
:10925000FF0F00002D8801007028002000800040D2
:109260000090004000A00040502500200C8C0040E1
:109270000C9C00400CAC004010B50468406801F044
:109280009BFA02222323E25410BDC04630B585B0BC
:1092900000F032FD00282FD1274C2378DBB2002BC1
:1092A00005D0032B01D10223237005B030BDA022CD
:1092B0000421224BD2009950012221481A6085686E
:1092C000C1688D4222D02178022900D09A606B4675
:1092D000D91DFFF781FA002823D1C2218022174B24
:1092E00089005A506946C8791649585002212170A0
:1092F000C12189005A50D8E70F4A1378DBB2012BFD
:1093000006D0022BD1D103231370CEE72270CCE715
:1093100000211170094AD3605360A023DB00D150B3
:10932000C3E70123054A02A8D36023700233037008
:10933000054B1B689847B8E77025002000200040C7
:10934000602500201C0500005C250020842210B54B
:10935000414B5200995884B000292DD18E223E4BAA
:1093600052009958002914D192223B4B520099582F
:1093700000290CD0002199509021C9005A5802A808
:109380005A5002230370354B42601B68984704B063
:1093900010BD0021324C99502278D2B2002AE3D07D
:1093A000022A21D9032ADFD1023A2170DA605A60F9
:1093B000A022D2009950D7E700219950A322D200D1
:1093C0009958284CC9B2201CFFF7F2F900282AD17D
:1093D000A268E3689B1A012BC0D1204A02AB187027
:1093E0001268181C9047B9E71F488168C26891420B
:1093F0002DD02278022A01D001229A606B46D91D15
:10940000FFF7EAF9002817D1C2218022124B890008
:109410005A506946C8791549585002212170C12116
:1094200089005A50A0E7012202AB1A700B4A039040
:109430001268181C904791E70123074AD3602370F4
:10944000032302A80370054B1B6898478CE7012291
:10945000DA602270F4E7C046002000405C2500205E
:109460007025002074250020602500201C050000C8
:10947000F0B55F4656464D464446F0B400279A4E36
:1094800089B03770994F3A600722002909D08A883D
:109490000D1C041C096896480193FFF775F9021E1C
:1094A00007D0101C09B03CBC90469946A246AB467A
:1094B000F0BD904BAA89A968181C9846FFF764F97B
:1094C000021EEED1A02203216378D205C133FF33FF
:1094D0009B0099502378C133FF339B0098506178EB
:1094E000854B864A99502178854A9950A168854ACA
:1094F00099506279002A48D00E21834A99502379E5
:10950000022B5FD0012B43D0A02204217A4BD20042
:10951000995000220531FF315A507B4814315A507E
:1095200019580132914319500121643849421950A8
:10953000083019509A601A603270129B1B88002BF9
:1095400005D1724A1378591C1170129A13800121A7
:10955000C222694B494292009950A121043A8900E4
:109560009950C02304216A4A5B00D150019BC0205E
:109570009D01FF23800014581D40664B2D0423409D
:109580001D431550116000228BE75F495A50B6E722
:10959000A0210420584AC900505000210530FF3056
:1095A0001150143011505848115819431150A2212C
:1095B000E078C9005050A07808395050936013608B
:1095C0003370BAE700F0A0F9002804D100F062F986
:1095D000021E00D065E700239946002304A90B80F2
:1095E0004B468B7001234B70A0789A4600F096F999
:1095F000021E00D055E7404B01229B46A22359464C
:109600005242DB00CA50A278083BCA503E4A8B58EF
:1096100051460B4359468B50032305A90B704B460B
:109620004B708B70CB703C4AE07800F053FA051C0D
:10963000021E00D035E7E078012100F009FBE07858
:1096400000F05AFB3378DBB2002807D0012B0DD095
:10965000022B00D071E7032333706EE7002B0ED08E
:10966000032B00D069E70223337066E74A46327065
:109670005A46D3605360A023DB00D5505DE7A0239A
:1096800004225946DB00CA50524643460A609A6893
:10969000DB689A421AD03378022B01D052468A6096
:1096A00002ABDC1D4046211CFFF796F8002810D1C4
:1096B000C2218022104B89005A50207817495850F7
:1096C00002213170C12189005A5036E75346337068
:1096D00033E70123084A06A8D360337002330370CE
:1096E0003B68984729E7C046702500205C2500208C
:1096F0007425002060250020002000400C0500009B
:1097000014050000240500006C05000068200020FE
:1097100000E100E0FFFF00FF8D9201001C0500004A
:1097200008B5011C0148FFF757F808BD7425002053
:1097300070B51A4D011C84B0281CFFF739F8184C7D
:10974000061C2378DBB2012B02D0301C04B070BDA4
:109750002278022A01D0134A93606B46281CD91D37
:10976000FFF73AF800280ED1C22180220D4B890064
:109770005A506946C8790C49585002212170C121BC
:1097800089005A50E1E70123064A02A8D3602370FA
:1097900002330370054B1B689847D6E7602500200D
:1097A00070250020002000401C0500005C250020E2
:1097B00082B00190019B002B14D0019B0A48013B11
:1097C00001930138C046C046C046C046C046C046A8
:1097D000C046C046C046C046C046C046F1D1019B07
:1097E000002BEAD102B07047E7030000F0B5002873
:1097F00020DBFF271B4B03229C463B1C8408C02612
:10980000C0B20240D2009340A4006444B600A559FF
:109810009D438B013B409340191C2943A1511F23B9
:1098200018401E3B8340C022181C0E4B520098501B
:109830001860F0BDFF260C4A03249446321C0F2307
:10984000C0B20440E400A2400340083B9B089B00D8
:109850006344DD6995438A013240A240111C2943CB
:10986000D961DCE700E100E000ED00E0074B1A6899
:109870000823520701D4181C7047002804D0044B59
:109880005B7803600023F6E70E23F4E75026002000
:109890008425002038B54E25194C0820635D002B27
:1098A00000D038BD4822FF21013BA3540132A1540E
:1098B0000132A3540132A3540132A354A3620132F2
:1098C000E36223636363A363E36323646364023833
:1098D000FE39A35423606360A360E3602361636186
:1098E000A361E36123626362FFF780FF8021C123EC
:1098F000044A9B000906D150012300206355D0E79C
:1099000054260020006000404E23034AD05C431ED2
:109910009841C0B27047C04654260020F0B50025DB
:10992000304A041C131828335D570820013500D035
:10993000F0BD8878002835D0136801334CD05368C7
:1099400001334BD0936801334AD0D36804200133EC
:10995000EED103231019244D28300370AC460020AB
:10996000A2279B00FF00D0506344DE591F4D0878AA
:10997000354080264A78DD51DD5976031205AC4624
:1099800032400504C026281CB60230400243F820AD
:10999000151C4001220210402A1C0243604602436B
:1099A000DA5101E0FE221A70231CA0220320C133E9
:1099B000FF339B00D20598504B78012B05D0012036
:1099C000A0400B4BD0500020B2E7A3401C1CA123A9
:1099D000DB00D4500020ABE70023BBE70123B9E74D
:1099E0000223B7E75426002000600040FFE0ECFFB0
:1099F0000C0500000A4B1A1828321278032A03D8E3
:109A0000012192004942D150FF221B1828331A70BD
:109A1000A023C130FF308000FD3ADB05C250704703
:109A2000542600200A4B10B518182823094AA221F1
:109A30009446C35603209B006344C9005A58064C01
:109A4000104322435A50C046C046C046585010BD2D
:109A50005426002000600040031F0000054B18182A
:109A6000054B28309C46007840B28000C0B260446C
:109A70007047C04654260020006000400A4B0B4A45
:109A8000181828239446A22210B5C356D2009B0072
:109A900063449C58064820404C1EA1419850985859
:109AA00009050143995010BD542600200060004074
:109AB000FFFFEFFF054B064A1818282394460122A2
:109AC000C3569B00DBB263441A60704754260020E3
:109AD00000600040F0B5474680B45A4C90462318C9
:109AE00028331E7808257F2E03D8281C04BC9046F6
:109AF000F0BDCD78AC46002D43D02268013200D1B4
:109B000094E004270026731C9D006259013240D066
:109B1000B31C9F4233D99D006259013239D0F31CE6
:109B20009F422CD99D006259013232D0331DBB4275
:109B300025D29D00625901322BD0731D9F421ED940
:109B40009D006259013224D0B31D9F4217D99D0058
:109B5000625901321DD0F31D9F4210D99D006259F8
:109B6000013216D001339F4209D99D00625901325A
:109B70000FD00936B74202D9636A013307D00425F2
:109B8000B3E72269013256D00A270426BBE709232E
:109B900024254246625162462718DEB228373E70BD
:109BA000002A02D1E318443318708B78002B15D1AA
:109BB000031CA0254A78C133FF3392009B00ED05BA
:109BC0005A51CB78002B15D176B2A41944340B78B6
:109BD00022789B0113432370002586E7A022D2053B
:109BE0009446E025022783006344ED005A59BA43A6
:109BF0005A51E6E7A22476B2134BB600F318E400FC
:109C00000A781D591149000229401951F8214901CA
:109C10000840061CC0211004021C301C89021D597A
:109C20000A4010432843185100255EE700261E70A5
:109C300043462360B9E704251D7043462E1C23616B
:109C40002B1CAFE75426002000600040FFE0FCFF23
:109C5000F0B5264D2C182834227853B2032B18DD8A
:109C6000EB1844331B789B09032B32D0012B39D0DE
:109C7000C025AD02A023DB059C46E02380006044A4
:109C8000DB00C4581A492140C150C2582A43C2506F
:109C9000F0BD032AFCD81748A227844601269A0063
:109CA0006244FF00D0593043D0511A1C604600274F
:109CB0004032920092B217500029E9D00022A256F9
:109CC00092005259002AE3D0C1229E409200865051
:109CD000DEE7A223A022DB00D205D2580123834075
:109CE0001A42C5D18025AD02C4E7C04654260020E3
:109CF000FFFFFCFF00600040A223A022DB00D20592
:109D0000D358C340181C012318407047F0B544468F
:109D10005F4656464D46F0B4844A83B0136800242B
:109D2000012B65D0824B1A68012A6DD0814B1A68CD
:109D3000012A00D178E0804B1A68012A00D183E023
:109D40007E4B00261A68012A00D18EE023070BD033
:109D5000E30700D593E0A30700D5BBE0630700D578
:109D60009DE0230700D5A9E0002C06DB03B03CBC36
:109D700090469946A246AB46F0BDC0239846C02304
:109D80009B0200246E4D994605E0032B00D1B0E004
:109D90000134062CEAD0231C4833E95C4BB2013372
:109DA000F6D0C9B24346081C98432B1828331B78B9
:109DB0005BB29B00EA58002AEAD0A027FF05BC4608
:109DC0008B09019383009C44E0276346FF00DB5925
:109DD0004F463B40012787401B0C3E42D5D0022B0B
:109DE000D6D1019B032B00D18BE001999047CFE79F
:109DF000C1215448890041580B4293D04C4B146008
:109E00001A680134012A91D1C1224E499200895821
:109E100002220A4200D189E700211960454B144310
:109E20001A68012A00D086E7C12246499200895863
:109E300004220A4200D17EE7002119603E4B144300
:109E40001A68012A00D07BE7C1223E499200895856
:109E500008220A4200D173E700211960374B1443EE
:109E60001A680026012A00D070E71E6080231B06B6
:109E70001C43A022A223D205DB00D65866E7A2230A
:109E8000304ADB00D058D1582D4DC00489032B68CF
:109E9000C00E890F9847A30700D45FE71AE0A323F9
:109EA000284ADB00D058D158254DC0048903AB683F
:109EB000C00E890F9847230700D455E7214A224B4B
:109EC0001F4DD058D158C0048903C00E890FEB68CC
:109ED000984749E71D4B1B4A194DD058D158C0042B
:109EE00089036B68C00E890F9847630700D438E771
:109EF000D5E7019B032B00D077E780239B029A468E
:109F000002E0C0239B029A46E0216346C9005B58E9
:109F10009B465F460E4B3B4067467B507B585746FF
:109F20001F433B1C67467B505FE7C0460061004013
:109F300004610040086100400C6100407C61004009
:109F400054260020006000401C050000140500009D
:109F5000FFFFFCFF36DF704737DF7047044B85207B
:109F60001A78002A00D0704701321A700020FAE7F0
:109F7000A4260020F0B55F4656464D4644460423CD
:109F8000F0B485B0994602ABDF1D00239A46434BDF
:109F90000190434E00259B461DE0381CFFF7DAFF79
:109FA000022842D000285BD10124AC40264241D196
:109FB0004346012B0AD062B63878FFF7CDFF022363
:109FC000021C9A4351D14B46002B41D00135A64388
:109FD000EDB2002E3CD0534604223B70314B9046EC
:109FE0005B68DB05DB0DD8D0103BD9B24AB2002A42
:109FF00040DB03249208C0322B4992002340525880
:10A00000DB00DA401406A40FE3B29846012CC4D159
:10A01000AC402642DAD0214B1B682342D6D11C43E8
:10A020001E4B1C60019B1D7010E072B60124AC40F9
:10A030002642BDD05B461B682342B9D15A46234312
:10A040001360019B1D704346012B23D100239946C9
:10A05000484605B03CBC90469946A246AB46F0BD8A
:10A0600000210022FEF78AF99EE700210022FEF778
:10A0700085F9A8E70F230D4A032494460B40083BBB
:10A080009B089B00634421405B68C900CB401C06D1
:10A09000A40FB9E7002399468DE7C046A826002003
:10A0A000FF3F000000ED00E000E100E018ED00E0FF
:10A0B00030B50124844083B0A3040720002B01D1D4
:10A0C00003B030BDA1232B4ADB00D45000236A46E5
:10A0D000D371294B04255B68DB05DB0D23D16B466F
:10A0E000D81DFFF737FF022836D0002816D1234AA3
:10A0F0001368A3431360012D08D062B66B46D8796C
:10A10000FFF72AFF0223021C9A4301D10020D7E760
:10A1100000210022FEF732F90020D1E700210022C1
:10A12000FEF72CF9E3E7103BD9B24AB2002A15DB5F
:10A1300092081349C0329200525803210B40DB00B1
:10A14000DA4013069B0FDDB2012BC8D10B4A002069
:10A150001368A3431360B3E772B6C8E70F23094A35
:10A160000B409446083B9B089B0063445A680323BA
:10A17000E4E7C04600F0014000ED00E0A826002022
:10A1800000E100E018ED00E030B5002908D0002A19
:10A1900006D00123834007249D0403D1201C30BD39
:10A1A0000E24FBE7074C256808241D42F6D0064B19
:10A1B000C0009C46A2236044DB00C150034B002436
:10A1C000C250EBE7A826002000F001401405000073
:10A1D0000123834007209A0B00D07047002B04D046
:10A1E000044A013012681A42F7D0034A034900209A
:10A1F0008B50F2E7A82600200405000000F0014083
:10A200000123834007209A0B00D07047002B04D015
:10A21000054A013012681A42F7D0A1220349D20040
:10A220008B500020F1E7C046A826002000F0014036
:10A23000F0B55F4656464D4644460423F0B485B01B
:10A24000994602ABDF1D00239A46434B019000253F
:10A2500003269B461DE0381CFFF77CFE022842D0F7
:10A2600000285BD10124AC40264241D14346012B5A
:10A270000AD062B63878FFF76FFE0223021C9A43B9
:10A2800051D14B46002B41D00135A643EDB2002EF3
:10A290003CD0534604223B70304B90465B68DB0554
:10A2A000DB0DD8D0103BD9B24AB2002A40DB0324E0
:10A2B0009208C0322A49920023405258DB00DA400B
:10A2C0001406A40FE3B29846012CC4D1AC40264238
:10A2D000DAD0214B1B781C42D6D11C431E4B1C707C
:10A2E000019B1D7010E072B60124AC402642BDD027
:10A2F0005B461B782342B9D15A4623431370019B16
:10A300001D704346012B23D100239946484605B0D2
:10A310003CBC90469946A246AB46F0BD00210022C7
:10A32000FEF72CF89EE700210022FEF727F8A8E7A9
:10A330000F230C4A032494460B40083B9B089B00C8
:10A34000634421405B68C900CB401C06A40FB9E7F9
:10A35000002399468DE7C046A526002000ED00E0C9
:10A3600000E100E018ED00E00122F0B5141C03212B
:10A37000844083B00723214202D1181C03B0F0BDF2
:10A380002D4E013335782542F7D02C4BC0009C462A
:10A390006044426000236A46D371294B04275B68FE
:10A3A000DB05DB0D16D16B46D81DFFF7D3FD022868
:10A3B0002CD000282DD1A5433570012F08D062B6CE
:10A3C0006B46D879FFF7C8FD0223021C9A4317D1C8
:10A3D0000023D2E7103BD8B242B2002A1FDB92081A
:10A3E000C0321848920012580B40DB00DA401306C6
:10A3F0009B0FDFB2012BD6D1A54335700023BCE7FC
:10A4000000210022FDF7BAFF0023B6E772B63578C7
:10A41000D1E700210022FDF7B1FF3578CBE70F230C
:10A42000094A03409446083B9B089B0063445A68D2
:10A430000B1C0340D9E7C046A526002000F00140D0
:10A4400000ED00E000E100E018ED00E001210A1C51
:10A45000824010B50723940701D1181C10BD054B8D
:10A460001C7808231442F8D0034BC000C1500023CD
:10A47000F3E7C046A526002000F001400122111C90
:10A4800081400723890701D1181C7047034BC00086
:10A490009C46604442600023F6E7C04600F001405D
:10A4A000012370B58B40032482B007221C4202D1E5
:10A4B000101C02B070BD354A157808221D42F7D035
:10A4C000830B9B03013A002BF2D16A46D371304BC8
:10A4D00004255B68DB05DB0D24D16B46061CD81D0B
:10A4E0000C1CFFF737FD022839D0002839D1294B41
:10A4F000A100CB18802109015A58B2435A50012DAE
:10A5000008D062B66B46D879FFF726FD0223021CFD
:10A510009A4301D10022CBE700220021FDF72EFF54
:10A520000022C5E7103BDDB26AB2002A1EDB9208AA
:10A53000C032194D920052592340DB00DA40130615
:10A540009B0FDDB2012BC8D1124B80229C468900A3
:10A55000120161448B5883438B500022A8E772B6E6
:10A56000C5E700210022FDF709FFC0E70F230B4AD2
:10A570002B409446083B9B089B0063445A682B1C65
:10A580002340A340DA40D3B29B09DAE7A526002096
:10A5900000ED00E000F0014000E100E018ED00E017
:10A5A000012370B58B40032482B007221C4202D1E4
:10A5B000101C02B070BD354A157808221D42F7D034
:10A5C000830B9B03013A002BF2D16A46D371304BC7
:10A5D00004255B68DB05DB0D24D16B46061CD81D0A
:10A5E0000C1CFFF7B7FC022839D0002839D1802293
:10A5F000284BA100CB181201985830439850012DD8
:10A6000008D062B66B46D879FFF7A6FC0223021C7D
:10A610009A4301D10022CBE700220021FDF7AEFED4
:10A620000022C5E7103BDDB26AB2002A1EDB9208A9
:10A63000C032194D920052592340DB00DA40130614
:10A640009B0FDDB2012BC8D1124B89009C468023A1
:10A6500061441B01CA581043C8500022A8E772B6D3
:10A66000C5E700210022FDF789FEC0E70F230B4A52
:10A670002B409446083B9B089B0063445A682B1C64
:10A680002340A340DA40D3B29B09DAE7A526002095
:10A6900000ED00E000F0014000E100E018ED00E016
:10A6A000F8B5224E4379171CF25C041C0D1C0820DF
:10A6B000002A00D0F8BD002934D01D4B22689A42F0
:10A6C0002ED00420E9782056FFF790F86379194AD4
:10A6D00069689B009950002F22D0174A21689F502B
:10A6E0000122164F6878CB59104093430343CB5156
:10A6F000032123680437DB59A8788B43084021687D
:10A700000343CB510F2123680837DB5928788B434B
:10A71000084021680343CB5163790020F254C9E714
:10A720000720C7E7064DDB00ED18C6E7C42600206A
:10A7300000800040B8260020AC2600200405000060
:10A74000D0D901001F22037970B513401E3A111CA5
:10A7500099400B1C8021144C635000244379134909
:10A760009B005C50036812491A6143790568CA541A
:10A7700080229200AE580F4B3340AB50C223802250
:10A7800005689B005202EA50802205689202EA5056
:10A7900080220568D202EA50802205681203EA503E
:10A7A0004379CC5470BDC04600E100E0AC260020E7
:10A7B000C4260020F0F0FFFF0122022103681A6086
:10A7C0004379014AD1547047C4260020012203680E
:10A7D000DA60704750310068890089B240187047CC
:10A7E00051310368FF318900C858704730B5802463
:10A7F00064028C40002B09D1C22305689B00EC50F9
:10A8000051310368FF318900CA5030BDC12305684A
:10A810009B00EC50F4E7C046F0B5022605AC277863
:10A820008024FF368E400568A4002D59B543066884
:10A830003551066835592B43335180235B028B40D9
:10A84000002F09D1C2240568A4002B51513103689F
:10A85000FF318900CA50F0BD05340568FF342B5123
:10A86000F4E7C046A2230268FF20DB00D35818405B
:10A8700080239B00C340181C484340097047C046D2
:10A880000B1C02685033944600229B009BB2634429
:10A890001A6080235B028B40191CC12302689B0055
:10A8A000D150704780235B028B40191CC223026881
:10A8B0009B00D1507047C04608B5284B1A68002A43
:10A8C00005D0C122264992008A58D20328D4254BAC
:10A8D0001A68002A05D0C122214992008A589203A1
:10A8E00028D4214B1A68002A05D0C1221C499200A5
:10A8F0008A58520328D41D4B1A68002A05D0C12259
:10A90000174992008A58120300D408BD0022A620DD
:10A910001A60174B40001968164B1B689847F4E7FC
:10A920000022A0201A60124B40001968114B1B68CE
:10A930009847CCE70022A2201A600D4B400019680E
:10A940000C4B1B689847CCE70022A4201A60084BE8
:10A9500040001968074B1B689847CCE740810040CE
:10A960000080004044810040488100404C8100400C
:10A97000B8260020AC26002008B5284B1A68002A0B
:10A9800005D0C122264992008A58D20328D4254BEB
:10A990001A68002A05D0C122214992008A589203E0
:10A9A00028D4214B1A68002A05D0C1221C499200E4
:10A9B0008A58520328D41D4B1A68002A05D0C12298
:10A9C000174992008A58120300D408BD0022A6201D
:10A9D0001A60174B40005968164B5B689847F4E7BC
:10A9E0000022A0201A60124B40005968114B5B688E
:10A9F0009847CCE70022A2201A600D4B400059680E
:10AA00000C4B5B689847CCE70022A4201A60084BE7
:10AA100040005968074B5B689847CCE7409100407D
:10AA20000090004044910040489100404C9100400B
:10AA3000B8260020AC26002008B5284B1A68002A4A
:10AA400005D0C122264992008A58D20328D4254B2A
:10AA50001A68002A05D0C122214992008A5892031F
:10AA600028D4214B1A68002A05D0C1221C49920023
:10AA70008A58520328D41D4B1A68002A05D0C122D7
:10AA8000174992008A58120300D408BD0022A6205C
:10AA90001A60174B40009968164B9B689847F4E77B
:10AAA0000022A0201A60124B40009968114B9B684D
:10AAB0009847CCE70022A2201A600D4B400099680D
:10AAC0000C4B9B689847CCE70022A4201A60084BE7
:10AAD00040009968074B9B689847CCE740A100402D
:10AAE00000A0004044A1004048A100404CA100400B
:10AAF000B8260020AC26002080218023184A890235
:10AB0000D1508022D221174B520289005A5040392D
:10AB10005A5001222F205A600138C046C046C04614
:10AB2000C046C046C046C046C046C046C046C046F5
:10AB3000C046F1D19A6000230B4A2F2013600138E0
:10AB4000C046C046C046C046C046C046C046C046D5
:10AB5000C046C046C046C046F1D1044A1370704793
:10AB600000E100E000100140C8260020F02600208F
:10AB7000A021F0B5002247462C4B490080B45A5022
:10AB800004315A5004315A5004315A504C395A50F9
:10AB900004315A50264A17687A1C38D0254A0025B5
:10ABA0009B58254A254E14681C1B254B2402240A59
:10ABB000984601E07B1C1BD03268FB009446DB19F1
:10ABC0009B0063445A68A24212D8A41AAD181F6AA7
:10ABD0009A69D96943461B68002B1BD0101C984703
:10ABE0000028E7D000210022FDF7C8FB7B1CE3D141
:10ABF000144B15491A780B789A420ED0134A9B00D1
:10AC00009D5080218023124A49035B00D15004BC2F
:10AC10009046F0BD081C9047CCE70132D3B2022B1E
:10AC200001D00B70EAE700230B70E7E7001001404A
:10AC3000E026002004050000C8260020D0260020C1
:10AC4000CC260020DC260020DD260020E82600207F
:10AC500000E100E0F0B55F4656464D464446F0B48C
:10AC6000C94BCA4A1B68CA498DB007930978137843
:10AC7000994200D154E20133DBB2022B00D11AE237
:10AC80001370C44A9B009B58079A9C4662440693E3
:10AC90001302BD4A1B0A136001230893BE4B002513
:10ACA0001B681E1C0B93BD4B1B78191C0A1C0393BD
:10ACB000BB4B013A1B68D2B20593BA4B029118689C
:10ACC000B14B02921B680A93B74B1B780993331C54
:10ACD000FF2A3DD00599D200894691444A4649460B
:10ACE00012784978B44601904E468A4228D0776857
:10ACF0005400A418B8460132B778D2B2BF1A781EF1
:10AD00008741E4007F4244443A402778022F00D133
:10AD1000DAE0032F00D0D4E06046013000D1D0E06B
:10AD200063460198D900CB189B00C3181D751B6A98
:10AD3000591CF7D11F1C01907178BC468A42D6D1AC
:10AD4000029A0198013AD2B266460292FF2AC1D114
:10AD5000914A0A9913608C4A2424116069460919A2
:10AD6000914A097805961170089A002A00D0A4E14A
:10AD70000B9B059F9B1B5A1E9341DBB2069301233D
:10AD80005B429C46864B1B680493864B1E687E4B39
:10AD90001B689B46804B1B680193834B1B78029377
:10ADA00000239946039B013BDBB20393FF2B00D1A9
:10ADB000FEE0049ADB0092469A446346013340D099
:10ADC0006346DC006444A4003419236AE0469C46D0
:10ADD000A268E1685B467548D31A1B021B0A8342CE
:10ADE00066D85B1863604B46A360E360012323755C
:10ADF000023B23627B1C00D1BDE0FB00DB199B0002
:10AE0000F318606859683D1C884209D8A5E0D30052
:10AE10009B189B00F3185968814200D3A8E0151CC9
:10AE20001A6A401A531CF2D1EB005D1943462262A4
:10AE30003A1CAD00751960602B62171C6346013324
:10AE4000BED1534652461B7852789A42AAD05246F7
:10AE50005268580090465246C0180133DBB2137056
:10AE60009278C00040449A4200D189E043683A1C7D
:10AE700098460378012BE0D14346DC004444A4000B
:10AE80003419237D002BD8D18268A260C168E160AB
:10AE9000056925614069E061029800289AD0A360A5
:10AEA00000225B464148D31A1B021B0A834298D9F1
:10AEB0005B469A1A1202120A8A4256D2891A6160B5
:10AEC00091E76746BC4639E76468E00007198046A9
:10AED0000198BF008146BA46CA445046007D674685
:10AEE0008146002800D128E76146013114D064452D
:10AEF00000D1CEE0049201989B4602E09C4210D023
:10AF00001F1CF900C919890041180B6A5A1CF5D198
:10AF10005B466746049A019051460D757178BC46B0
:10AF20000CE7049A01905B46BC4200D19CE044448B
:10AF300080466746A40044446068246A84460C62E4
:10AF4000611CE9D00198E10080460919890041445B
:10AF500048681F1C60444860DEE7091A5960424691
:10AF6000434627620193171C68E74B4663603AE744
:10AF7000091A596058E7434642460193171C5DE79A
:10AF800053464A461A7071E7C8260020DC26002086
:10AF9000DD260020E8260020E0260020D426002020
:10AFA000D8260020D0260020E4260020FEFF7F00C7
:10AFB000644B019A1A60059B9F4200D16DE07B1C97
:10AFC00000D1BBE0604BFA00D7191B68BF00DB194A
:10AFD0005C685E485E4B5F4DC1585F4B2E781B68C6
:10AFE000CA1A1202120A03329046002E1FD180267E
:10AFF000D1277602BF00C651403FC651C0228027EC
:10B00000564EBF025200B7503760012606602F200F
:10B010000138C046C046C046C046C046C046C046CD
:10B02000C046C046C046C046C046F1D12E7042461A
:10B03000A24200D2221CA820D2181202130A434AAC
:10B04000C000135042485B1A12581B02521A1202D7
:10B05000120A03321B0A9A4223D9802180233F4AD5
:10B0600089025B00D1501CE06346DB0063448446E8
:10B070000C1C9B0063441B6A1F1C581C00D05BE720
:10B080000127324887604846099000201F1C0A901B
:10B0900052E7544653465146EDE7069B002B00D03D
:10B0A0008DE700232E4A13700DB03CBC90469946A4
:10B0B000A246AB46F0BD0023E2E5234A0024176810
:10B0C000012252429446002260469046721C1FD0D4
:10B0D000F20092199200BA185168069DA94223D82D
:10B0E0006B1A0693434653604346641811691375FF
:10B0F0008C46136A002908D007991062611809026A
:10B10000090A91606146301CD1601E1C721CDFD19F
:10B110000C4A84461360012305960693371C31E6DA
:10B12000002306930893B9E584460648491B03604B
:10B130000123059651600693371C23E6FFF7DCFCDC
:10B14000AFE7C046E0260020D026002000100140D6
:10B1500004050000F0260020C826002000E100E0E1
:10B16000E4260020F8B51E1C051C0F1C141C07202B
:10B17000B30700D0F8BD002EFCD0FFF7BDFC2E4B6E
:10B18000069A1A602D4B1F702D4B1E60002F51D058
:10B19000331C0022F900C819800030181A701A7583
:10B1A00024338342FAD1C919890073180321181C6A
:10B1B000244A1830117061000919234AC9005860E7
:10B1C000401813604118002259610121D860802085
:10B1D0009C709C729C74C5241A705A701A725A72B0
:10B1E0001A745A74194B49421960194B40031A706A
:10B1F000184BA4001A70184B8132FF3298501A591C
:10B200000131FF318A433F390A431A51A1221860A4
:10B21000C4201249D2008D5080001C58104A224090
:10B22000C024240222431A500E4B0020CA580E4B51
:10B230001A609FE70021B6E7CC260020DE2600201A
:10B24000D0260020D4260020D8260020E02600208A
:10B25000DC260020DD26002000E100E00010014097
:10B26000FF00FFFF04050000C8260020F0B5174BC3
:10B2700094461E68002E1DD0002A19D0002817D031
:10B28000134B1F78002F11D03378002B14D0341CAF
:10B290000023243407E0261C2434251C243D2D786B
:10B2A0001A1C002D09D00133BB42F4DB0420F0BD91
:10B2B0000720FCE70820FAE70022012333706346E9
:10B2C0007170B36102600020F1E7C046D026002013
:10B2D000DE260020F0B5474680B43D4B1C68002CAC
:10B2E00047D03C4B1D780723854203D8181C04BC6B
:10B2F0009046F0BD0429F9D9C3001B189B00E4183F
:10B3000025780823012DF1D163780024A046012B74
:10B3100031D0314B10245B68DB05DB0D2FD12F4B77
:10B320001D682D196B78AC785E1C341B671EBC4100
:10B33000644226402C78B4421FD05C00E3186C684D
:10B34000DB00E4180423002CD0D0033B23706060A2
:10B35000234B2448C358E160A36043468021236106
:10B3600080236261204A5B0049036E70D150002344
:10B37000BCE70823BAE78846CBE70423B6E7103BCF
:10B38000DDB26CB2002C13DBA408174DC034A4004E
:10B39000645903252B40DB00DC4023069B0FDBB206
:10B3A0000024012BBBD00834032BB8D00834B6E7F7
:10B3B0000F230E4C2B40A446083B9B089B00634484
:10B3C0005C6803232B40DB00DC40E3B29B09E6E72B
:10B3D000D0260020DE26002000ED00E0D826002048
:10B3E000040500000010014000E100E018ED00E05D
:10B3F00030B5334B1A68002A34D0324B1978072302
:10B40000814201D8181C30BDC3001B189B009A5CF8
:10B410000823012AF6D12C4B0F325B68DB05DB0DCC
:10B4200024D12A4B196889184B788A785C1CA21A97
:10B43000551EAA41524214400A78A24214D05A0022
:10B44000D3184A68DB00D2180423002ADAD0023B62
:10B45000137050604C7080211D4AFE334903D15057
:10B460000023CFE70823CDE70423CBE7103BD9B275
:10B470004AB2002A13DB92081549C0329200525892
:10B4800003210B40DB00DA4013069B0FDBB20022E6
:10B49000012BC6D00832032BC3D00832C1E70F23DB
:10B4A0000C4A0B409446083B9B089B0063445A6837
:10B4B00003230B40DB00DA40D3B29B09E6E7C0462A
:10B4C000D0260020DE26002000ED00E0D826002057
:10B4D00000E100E018ED00E072DF704779DF7047AF
:10B4E0007DDF704765DF7047F0B55F4656464446DE
:10B4F0004D46F0B485B09A460E9B061C98461B78C4
:10B500008B4601930388171C002B40D000239946DB
:10B5100002AB0024DD1C03E033880134A3422CDDA0
:10B520007368A1009C460422614403A801F0C0FA9C
:10B5300003A8291C0022FFF7D5FF002828D12B786B
:10B54000BB42E9D14B46002B29D043461A78D31988
:10B550001F2B34DC524403A8291CFFF7C3FF00282B
:10B5600016D143461A782B780134D318424613700B
:10B57000012399463388A342D2DC4B46002B06D0E8
:10B58000434651461B78019A013B9B1A8B5400207D
:10B5900005B03CBC90469946A246AB46F0BD43463A
:10B5A0001B78DA191D2A0ADC41469A1C0A70524699
:10B5B00059460133DBB2D15443461A78CAE70C200E
:10B5C000E6E7C046F0B556464D4644465F46002382
:10B5D000F0B497B005AD02AA041C0E1C2B70537377
:10B5E000002800D11EE1C3785B0700D4B2E00378E5
:10B5F000002B00D0DAE18378002B00D00BE200238F
:10B60000E278002A00D0ADE06268002A0FD01178FD
:10B610001C2B00DDFEE002220A2006AFFA545A1C61
:10B62000D2B2B854DA1C0233DBB22A70F95423893F
:10B63000002B00D00BE2238A002B00D0A6E2238B44
:10B64000002B00D0BBE2236A002B4BD02A780C20C1
:10B65000911D8A461F2900D97DE0198805388B463F
:10B66000052978D96C4F6946BC46DC4467468F8112
:10B670008F89BC46694FB846BC456CD95F88BC46CB
:10B68000052F68D9644F67448F81BFB2474562D99F
:10B69000634FBB4503D0BC4501D0E3455BD80520D3
:10B6A00006AFB854901CC1B2297089466946501C37
:10B6B0000873C0B284461220804660464146395421
:10B6C000198804328C4649467818614601706146F3
:10B6D000090A41705B88D2B2BF183B701B0A7B70AD
:10B6E00053462B70636A9846002B2BD01B792A781F
:10B6F0009C460233911CDBB2CB180C201F2B2ADC9A
:10B70000634606AF0333BB54531CDBB2F330F8542B
:10B710004346C9B229701B8879180B701B0A4B70FD
:10B7200043460432D0B228709A88002A0AD0996819
:10B7300000290FD0381801F0BBF943469A882B78BE
:10B74000D3182B702C23E15C06AF002900D0B8E1A0
:10B75000B94669E0072017B03CBC90469946A2461E
:10B76000AB46F0BD022106AFF954991CC9B2884618
:10B770000121581CC0B2395441460333DBB22B704F
:10B780007A5441E773780C201D2BE4DC02AB9C4615
:10B790000E241D23644426306044211C2380FFF7BF
:10B7A0009FFE0028D7D13378022B00D1C1E27378F5
:10B7B000002B03D09BB208221D2B01D9082223881D
:10B7C0000EA988464046427002AA527BDBB2023282
:10B7D000591C9B18DBB202AA01705373B278002A7D
:10B7E00000D02DE2F478002C0ED0022241464746CC
:10B7F0000120CA54591C9A1CC9B203337854D2B2DE
:10B80000DBB202A94B73BC547268002A31D01178A4
:10B810001C2B20DD0C209EE77FF3FFFF7DF3000053
:10B82000FFFF000000239946002E00D10DE2F378BF
:10B83000002B00D08EE702AA53733378002BA1D1DE
:10B84000B378002B00D0D9E172680023002A10D011
:10B8500011780EAA9046022240464446C2540A205D
:10B860005A1CD2B2A054DA1C023302A8DBB24273D3
:10B87000E1543389002B00D002E1338A002B00D041
:10B8800063E1338B002B00D0E3E1336A002B4BD014
:10B8900002AA527B0C20911D1F2900D95BE7188852
:10B8A00083465C460720052C00D854E7D04F5F4400
:10B8B000BFB2B846CF4FBC46B84500D84BE75F880B
:10B8C000BA46052F00D846E7C94F6C46B846D04463
:10B8D0004746A781A789674500D83CE7C64FBB45C7
:10B8E00004D0BA4502D0D34500D934E70EA880462B
:10B8F00005204446A054901CC0B202AC607384463C
:10B9000012274046541CE4B2075560461C88404448
:10B910000470240A447004325B88D2B2424413702B
:10B920001B0A537002AB5973746A002C2FD002AB00
:10B9300027795A7BBB1C911CDBB2CB180C201F2B28
:10B9400000DD08E70EAB984603379F544746C9B25F
:10B9500002AB5973531CDBB2F330F85423884144D3
:10B960000B7004321B0A4B70D0B202AB5873A28822
:10B97000002A0CD0A168002900D1EBE6404401F078
:10B9800097F802ABA2885B7BD31802AA53732C23CF
:10B99000F15C002900D07DE10EAA904602AB5B7BF2
:10B9A000424629784846FFF797FDD4E663780C2095
:10B9B0001D2B00DDCFE60EAB98461D2342461380BB
:10B9C00002AB9C46063060444146FFF789FD0028E3
:10B9D00000D0C0E62378022B00D1A3E16378002BCE
:10B9E00003D09BB208221D2B02D9434608221B8894
:10B9F00006AF7A702A78DBB20232591C9B18DBB290
:10BA000039702B70A278002A00D1F9E50C201B2B8D
:10BA100000D9A0E601E00EAB98464046FFF75EFD78
:10BA2000002800D097E6032219212B7806AFFA549C
:10BA30005A1CD2B2B954424611889A1CD2B2BF18CD
:10BA400004333970DBB2090A79702B70D8E508230A
:10BA5000984606AFA04400954046022102223B1CB6
:10BA6000FFF742FD002800D075E60095404606210C
:10BA700010223B1CFFF738FD002800D06BE6DAE50A
:10BA80000EAB02AA98469446341C0D230834634436
:10BA90000093201C022102224346FFF725FD0028C7
:10BAA00000D058E602AA94460D2363440093201C5C
:10BAB000062110224346FFF717FD002800D04AE672
:10BAC000DBE6A36A002B00D144E600229146163241
:10BAD0009246163228788C46934600E0A36A4A467E
:10BAE000984652004A4492009044434651469B88EF
:10BAF000421C0333D2B23B54B9544246831CDBB2DE
:10BB00002B701288FB181A70120A5A7043460430C0
:10BB1000C0B228709A88002A0FD09968002900D1F5
:10BB200018E6381800F0C4FF434698882B78C018F0
:10BB30005B46E35CC0B29C4628704B460133DBB2E7
:10BB400099466345CAD3B9466EE60EAB02AA98463B
:10BB50009446341C0D23103463440093201C0321AD
:10BB600002224346FFF7C0FC002800D0F3E502AAFA
:10BB700094460D2363440093201C07211022434662
:10BB8000FFF7B2FC002800D0E5E57AE610239846DE
:10BB900006AFA04400954046032102223B1CFFF75C
:10BBA000A3FC002800D0D6E50095404607211022CE
:10BBB0003B1CFFF799FC002800D0CCE53FE518239B
:10BBC000984606AFA04400954046142102223B1C33
:10BBD000FFF78AFC002800D0BDE5009540461521FE
:10BBE00010223B1CFFF780FC002800D0B3E52AE5BB
:10BBF0007FF3FFFF7DF30000FFFF000002AB0E2488
:10BC00009C466444201CFFF769FC002800D0A2E594
:10BC10000EAA90460322414602AB5B7B4046CA54C3
:10BC200019215A1CD2B281549A1C2188D2B24244A2
:10BC300011700433090A5170DBB202AA5373D1E5C3
:10BC40000C201B2B00D986E5DCE702AB5B7B0022D6
:10BC5000A7E60EAB02AA98469446341C0D2318346E
:10BC600063440093201C142102224346FFF73CFC4E
:10BC7000002800D06FE502AA94460D236344009388
:10BC8000201C152110224346FFF72EFC002800D06F
:10BC900061E5FAE5B46A002C00D15BE503910EA9D9
:10BCA0008846162102AB8A4616315B7B221C002790
:10BCB0008B4600E0B26A40467C00E419A4001419E7
:10BCC000A28841460332C2549A1CD2B202A84273DF
:10BCD00094465246581CC0B20A54624620884244D8
:10BCE00010700433000A5070DBB202AA5373A288AA
:10BCF000002A11D0A168002900D12BE54344181C6B
:10BD000000F0D6FE02ABA0885B7B02AAC318DBB2B0
:10BD100053735A46B25C03920137039AFFB29742BB
:10BD2000C8D33DE643461B8809221D2B00D85FE699
:10BD300054E6238809221D2B00D841E537E5C0468B
:10BD400073DF7047F8B5051C0E20002D00D17DE093
:10BD5000002A00D17AE000200F1C3D4908703D49BF
:10BD60000B6006993C4B19603C490B1C13CA13C36A
:10BD700013CA13C313CA13C3002107223848FCF7A0
:10BD800017FA384B384A394E1A60394A00219A60FE
:10BD9000301C3022FCF70CFA2B782A1C3370AB785D
:10BDA0001032B370EB78F3706B787370331C103310
:10BDB00003CA03C3331C103A083303CA03C3331C3A
:10BDC0000832183303CA03C36B6A002B11D0294B06
:10BDD000294C7362696A9C600A881A8088889880F6
:10BDE000002806D000238A68D25CE25401338342E3
:10BDF000F9D1AB6A002B14D0204B2148B362A96A59
:10BE000098608C889C800A881A800023002C05D0BA
:10BE10008A68D25CC2540133A342F9D12C23EA5C74
:10BE2000F2542B6A002B06D0164B33622A6A5188D3
:10BE3000598012881A806B68002B03D0124B7360F4
:10BE40006B687360301C391CFFF7BCFBF8BDC04643
:10BE500000280020302700205827002064270020D9
:10BE60005C270020AC27002088270020F426002033
:10BE7000E027002024270020342700200828002065
:10BE8000BC27002004280020A8270020F0B50024AB
:10BE9000A34D89B0287001A80194FDF7E7FC08289C
:10BEA00009D0002805D1019B002B05D001229D4B14
:10BEB0001A7009B0F0BD01949B4F0021381C072275
:10BEC000FCF776F9994E7378002B58D02B78012B1C
:10BED00005D0B278002A00D1FCE0022B0FD1944AA1
:10BEE0001268002A00D106E10121924B0820197046
:10BEF00090472B78012B00D18DE0022B49D0327B6B
:10BF0000002A01D1032B65D0327E002A01D1042BF7
:10BF100065D0874A1268002A03D0033B012B00D862
:10BF200099E00022844B1A7002AC1822201C0021D8
:10BF3000FCF73EF900232A78237063602372E360E4
:10BF4000022A00D1BCE04FD9032A00D1A5E0042A7F
:10BF500000D09FE0B38B2382338C6382774B1A79B6
:10BF6000002A00D1BCE03278002A04D0744A12784A
:10BF7000002A00D1C2E00422724B1A703CE0B37870
:10BF8000002BB6D02B78022BA9D0012BB7D10223DE
:10BF90002B70B378002B17D07B78002B00D0A8E053
:10BFA000BB78002B00D0A4E0FB78002B00D0A0E0F1
:10BFB0003B79002B00D09CE07B79002B00D098E0EF
:10BFC000BB79002B00D094E003232B70337B002B34
:10BFD00000D083E004232B70337E002B36D1002366
:10BFE000584A2B7013709CE7012A53D16382238235
:10BFF000544B676022701A70201CFFF7A1FE0028C6
:10C0000000D056E74A4B1B68002B02D04D4A1078EF
:10C01000984700204DE77278002AB8D07A78002A35
:10C0200000D076E7BA78002A00D072E7FA78002AC2
:10C0300000D06EE73A79002A00D06AE77A79002AC0
:10C0400000D066E7BA79002AA1D062E7384B1A68B7
:10C05000002A00D165E73378002B00D161E7384B27
:10C060001B78002B00D05CE70121334B07201970AF
:10C07000904759E7E36004233348023200212272DB
:10C08000C370FFF79FFA002800D012E705222D4B5E
:10C090001A702A78002AB5D0AEE7B38A6382338A51
:10C0A0002382264B1A79002A1FD03278002A03D027
:10C0B000234A1278002ADDD00322224B1A709BE714
:10C0C00001232370338967606382736823821D4B69
:10C0D0001A7091E7022B00D011E775E7032318E7E8
:10C0E0001A7B002A00D03EE745E71A7B002ADCD104
:10C0F000E2E702230DE70F490A70FBE6E360042341
:10C100001148023200212272C370FFF75BFA002847
:10C1100000D0CEE606220B4B1A702A78BAE7C0464A
:10C1200000280020012800205C2700206427002030
:10C1300030270020DC270020DD270020AC2700204E
:10C140005427002014280020F426002008B5038876
:10C15000112B1DD0192B06D0102B00D008BD8288C2
:10C16000204B1A80FAE78279002AF7D11E4B1B7800
:10C17000022B30D027D9032B1DD0042BEED11B4B23
:10C180001A701B4B1B68002BE8D000209847E5E78E
:10C190000022184B1A70134B82881B889A42DDD1FB
:10C1A0000120FFF773FE0028D8D0134B1B68002B2B
:10C1B000D4D09847D2E70D4A04201370FFF766FEEB
:10C1C0000028F2D1CAE7012BC8D10220FFF75EFE9A
:10C1D0000028EAD1C2E70320FFF758FE0028E4D187
:10C1E000BCE7C0466A200020002800201428002058
:10C1F00030270020542700205827002075DF704783
:10C2000076DF70477ADF70477BDF704710B5184BD9
:10C2100082B01888174B984214D0174A174C1378DD
:10C220000133DBB21370217B99420DD200231370CE
:10C23000237C002B12D16369002B03D0002201A8BC
:10C240000270984702B010BD0D49FFF7D7FF0028D4
:10C25000F8D0A369002BF5D09847F3E73B21FFF70F
:10C26000CFFF0028E7D0A369002BE4D09847E2E78E
:10C2700044280020FFFF0000202800202428002060
:10C280004828002030B51C4B1C4A5B88118883B0BD
:10C2900099420FD852889A420CD3194B5B69002BF4
:10C2A00003D0012201A802709847164C0023237086
:10C2B00003B030BD134C2378002B08D0104B5B69C2
:10C2C000002BF3D0002201A802709847EEE70E4B36
:10C2D0000B4D1B78002B0CD0A9680C4B0022186862
:10C2E000FEF7F8FF0028E1D0AB69002BDED09847BD
:10C2F000DCE76968F1E7C0461828002048280020DC
:10C300002428002015280020202800204028002074
:10C31000164938B5021C0B1C32CA32C332CA32C3AA
:10C3200012681A600022124B01681A70002916D098
:10C33000104C0832201C00F0BBFB201CFFF762FFF2
:10C3400000280BD101220C4B52421A8000220B4BC9
:10C350000B481A7000210B4AFEF788FF38BD0548CC
:10C36000FFF752FF0028EDD0F8E7C0462428002050
:10C3700015280020482800204428002020280020DC
:10C38000402800200DC2010010B50388112B36D0C3
:10C3900022D9122B18D0502B1DD1224CC288E389F0
:10C3A0009A4218D1C38B022B15D11E33C35CDB0715
:10C3B0000FD41D4B1868FFF71BF800280BD0A3699A
:10C3C000002B08D0984706E0811D0822174800F08E
:10C3D0006FFBFFF757FF10BD102BFCD1011C8288AB
:10C3E000134B16311A801148082200F061FB00221D
:10C3F000104B1A700B4BDB89002BECD1E9E70122C3
:10C400000B4B52421A8000220A4B1A70064B1868D6
:10C41000FEF7EEFF0028DED0024B9B69002BDAD03E
:10C420009847D8E72428002040280020182800201A
:10C430004428002020280020A0DF7047A2DF70479A
:10C44000A6DF704763DF704710B5002808D00029C9
:10C4500006D00B88112B16D0502B02D0102B0FD0EA
:10C4600010BDCB88028A9A4211D082889A42F7D1B5
:10C470008469002CF4D00B1C2031DA8BA047EFE745
:10C480008B888382ECE701235B428382E8E7CA8BD7
:10C49000022AEAD12023CA5C1F3B134002D00123A9
:10C4A0008375DDE78375DBE7F0B54D465F464446AF
:10C4B00056461023F0B495B0041C0D1C04A87B490B
:10C4C000102299460E2700F0F3FA002C0ED0002D12
:10C4D0000CD001235B42A3822B6804A8A361002334
:10C4E000211CA375FFF7AEFF071E07D0381C15B03F
:10C4F0003CBC90469946A246AB46F0BD237802A9C3
:10C500008B700123A21C01200B80FFF795FF071EF3
:10C51000ECD1002103226846FBF74AFE6B460F224E
:10C520001B7892469343012293465A461343524640
:10C53000134010229046424613436A4613705378C4
:10C54000524693435A4613435246134042461343BE
:10C550006A465370937806229343043A13436A461B
:10C560000DAD937000211C22281CFBF721FE4246D2
:10C570002B7801AE13432B706B466A466B612378B0
:10C58000002193730323301C938103226F60EF60BB
:10C590002F61AF61FBF70CFE5246337800219343C5
:10C5A0005A46134352461340424613435246337091
:10C5B000737808A893435A461343524613404246A1
:10C5C000134306227370B3789343043A134308224B
:10C5D000DBB293434A4693435A4613431422B37043
:10C5E000FBF7E6FD03AB6A4608930123138514238A
:10C5F0009385231C57856088291C08AA0C3309964B
:10C60000FFF71CFF071E00D070E700211C22281C2A
:10C61000FBF7CEFD08232A7800211343042213439D
:10C620006A462B702378301C937302239381032274
:10C630006F60EF602F616F61AF61FBF7B9FD52462C
:10C640003378002193435A461343524613404246DF
:10C65000134352463370737808A893435A461343E2
:10C66000524613404246134306227370B3789343F5
:10C67000043A13430822DBB293434A4693435A4693
:10C6800013431422B370FBF793FD03AB6A46089380
:10C69000012313851423578593856088231D291C46
:10C6A00008AA0996FFF7CAFE071C1FE7E8D9010090
:10C6B00070B586B06B46041C0D1CDA80002809D0CA
:10C6C000828A114B08209A4202D0A37D002B03D10D
:10C6D00006B070BD0E20FBE76B46DB880138142BDB
:10C6E000F6D802AE301C00211022FBF761FDA389B1
:10C6F000A08A33806B460633B3600123311CF5609A
:10C70000B370FFF79DFEE3E7FFFF00001F4B1B78B0
:10C71000012B00D070471E4B1B681B07FAD1F0227B
:10C720001C4B1B68134018D11B4B1B6813421AD0BB
:10C73000174B1B681B07EDD1F022164B1B681340EB
:10C74000402BE7D1144B1B681342E3D1C123802255
:10C750000121DB00D205D150DCE7102B0FD10E4BAD
:10C760001B681342E8D10D4A0D4B1A6080220D4B15
:10C7700012021A60054B1B78012BD9D0CAE7302B67
:10C78000DAD1054B1B681342D6D1ECE7E00F00F07D
:10C79000E40F00F0E80F00F0EC0F00F0DFFF07C03F
:10C7A00004050040186C00402EDF704751DF7047D1
:10C7B00010DF704761DF704708B5081C111CFBF7DC
:10C7C000D1FD08BDF0B557464E464546E0B4314B65
:10C7D000314E1D6899466B425D41304BB2461C6834
:10C7E000984663425C412E4F82B0EDB2E4B2002D18
:10C7F00008D0002C27D002B01CBC90469946A24617
:10C80000F0BD012401A8FFF7D1FF052831D0002891
:10C810002AD000210022FBF7B1FD002CF1D16A469D
:10C820001D4B01A91B8893801D4B1C68201CFFF722
:10C83000C1FF0528E5D0002810D000210022FBF719
:10C840009DFD0024D3E73C68338801A9201C0B80A0
:10C85000FFF7B0FF0528CED00028EED14346201CBC
:10C860001B6898470024C2E74B4601981B6898470D
:10C87000D3E7002CBFD153466A461B8801A9938099
:10C88000074B01251C68201CFFF794FF0528D2D117
:10C89000B1E7C04658280020522800205C2800201C
:10C8A0005428002038B5041C0720002901D08D072A
:10C8B00000D038BD094801600949201C0A80094A96
:10C8C00009491360FFF774FF0028F2D10122074BDA
:10C8D00016301A70FFF768FFEBE7C04654280020B7
:10C8E0005228002060280020B9C7010050280020ED
:10C8F000002803D0024B1860002070470E20FCE790
:10C900005C28002008B50A4B1B68002B08D098470C
:10C91000002800D108BD00210022FBF72FFDF9E718
:10C92000044B1B78002BF5D0FFF74CFFF2E7C04615
:10C93000602800205028002003210A4802680A438A
:10C940000260094802680A4302600849084A094B24
:10C950009B1A03DD043BC858D050FBDC06488047D7
:10C9600006480047240500405405004094DA0100C1
:10C97000002000206C2000200DC70100C1800100B4
:10C98000FEE7FEE7FEE7FEE7FEE7FEE700224308DC
:10C990008B4274D303098B425FD3030A8B4244D387
:10C9A000030B8B4228D3030C8B420DD3FF220902C9
:10C9B00012BA030C8B4202D31212090265D0030B88
:10C9C0008B4219D300E0090AC30B8B4201D3CB037E
:10C9D000C01A5241830B8B4201D38B03C01A5241C0
:10C9E000430B8B4201D34B03C01A5241030B8B42C2
:10C9F00001D30B03C01A5241C30A8B4201D3CB02AD
:10CA0000C01A5241830A8B4201D38B02C01A524191
:10CA1000430A8B4201D34B02C01A5241030A8B4294
:10CA200001D30B02C01A5241CDD2C3098B4201D3AC
:10CA3000CB01C01A524183098B4201D38B01C01A2A
:10CA4000524143098B4201D34B01C01A52410309A1
:10CA50008B4201D30B01C01A5241C3088B4201D350
:10CA6000CB00C01A524183088B4201D38B00C01AFD
:10CA7000524143088B4201D34B00C01A5241411A24
:10CA800000D20146524110467047FFE701B5002031
:10CA900000F00CF802BDC0460029F7D003B5FFF73F
:10CAA00075FF0EBC4243891A1847C0467047C046FE
:10CAB000002310B5934203D0CC5CC4540133F9E792
:10CAC00010BD00000FB40B4B13B51C68002C05D033
:10CAD000A369002B02D1201C00F058F805AB201CE4
:10CAE000A168049A019300F063F916BC08BC04B075
:10CAF0001847C046602000200023C25C0133002A92
:10CB0000FBD1581E7047000008B5024900F0AEF88E
:10CB100008BDC04691D60100002310B5041C036077
:10CB20004360836081814366C281036143618361A5
:10CB3000191C08225C30FBF73BFB054B2462636247
:10CB4000044BA362044BE362044B236310BDC04655
:10CB500001D3010029D3010061D301008DD301006D
:10CB600070B568254B1E5D430E1C291C743100F006
:10CB70009FF8041E08D000212A1C016046600C307A
:10CB8000A0606832FBF714FB201C70BD836913B5ED
:10CB9000002B28D18364C3640365134B134A1B68BD
:10CBA00082620193984201D101238361041C00F049
:10CBB0001FF86060201C00F01BF8A060201C00F033
:10CBC00017F80421E06000226068FFF7A5FFA06865
:10CBD00009210122FFF7A0FFE06812210222FFF7DE
:10CBE0009BFF0123A36113BD4CD9010009CB0100B8
:10CBF000F8B51D4B061C1D68AB69002B02D1281C23
:10CC0000FFF7C4FF4835AC686B68013B05D40C22C4
:10CC1000A75E002F10D06834F7E72B68002B06D1F1
:10CC2000301C0421FFF79CFF2860002801D02D68EC
:10CC3000E9E70C23336016E00123201C5B42E3810B
:10CC40000233A38167662760A76067602761676119
:10CC5000A7615C30391C0822FBF7AAFA201C676325
:10CC6000A763A764E764F8BD4CD90100F7B5041CBD
:10CC7000071C002601914834002C16D06368A56873
:10CC80000093009B013B00930DD4AB89012B08D985
:10CC90000E22AB5E013304D0381C291C019B98473F
:10CCA00006436835EDE72468E6E7301CFEBD00006A
:10CCB000032370B5CC1C9C430834051C0C2C01D2FA
:10CCC0000C2405E0002C03DA0C2300202B6042E04A
:10CCD0008C42F9D3204A1368101C191C002913D068
:10CCE0000A68121B0DD40B2A02D90A608B181FE0A8
:10CCF0008B4202D15A6802601BE04A685A600B1CE2
:10CD000017E00B1C4968E9E7144E3368002B03D188
:10CD1000281C00F0E3FA3060281C211C00F0DEFA29
:10CD2000031C421CD0D00322C61C964386420AD163
:10CD30001C60181C07210B301A1D8843821A0AD068
:10CD40005142995007E0311A281C00F0C7FA431CE1
:10CD5000BAD0331CECE770BD68280020642800209E
:10CD6000936810B5013B9360002B05DA9469A342E8
:10CD700008DBCBB20A2B05D01368581C1060197061
:10CD8000C8B201E000F008FB10BDF8B5061C0F1C8E
:10CD9000141CD518AC4208D02178301C3A1CFFF77F
:10CDA000DFFF0134431CF5D100E00020F8BD000096
:10CDB000F0B59FB0061C0F1C02920593002804D00A
:10CDC0008369002B01D1FFF7E1FE794B9F4201D12E
:10CDD000776808E0774B9F4201D1B76803E0764B54
:10CDE0009F4200D1F768BB891B070AD53B69002B1E
:10CDF00007D0002306AD6B6120336B761033AB7622
:10CE00003DE0301C391C00F033FB0028F1D001203C
:10CE10004042CAE0059A111D12680591002A7EDB86
:10CE20000992013423782E2B00D189E021786348C0
:10CE3000032200F0C5FC002808D0604B0134C01A62
:10CE400040238340181C2B68184328602178631CFA
:10CE50005B4806220293297600F0B2FC002800D13C
:10CE600091E0584B002B00D084E00722059B07334C
:10CE70009343083305936B69039A9B186B61029C7B
:10CE80002378002B04D1029BE31A049311D003E012
:10CE9000252BF8D00134F3E7049B301C391C029A8F
:10CEA000FFF773FF431C7BD06A69049B944663447D
:10CEB0006B612378002B73D00122002352426A60F9
:10CEC00002A95432521801342B60EB60AB6013702E
:10CED000AB6521783C48052200F072FC002809D09F
:10CEE000394B0134C01A01238340181C2B681843A6
:10CEF0002860EEE72B68DA0604D55322202102A829
:10CF0000121811701A0704D553222B2102A81218E7
:10CF1000117022782A2A00D17CE7099B05E0524251
:10CF2000EA60022213432B607BE72278303A092A19
:10CF300004D80A214B4301349B18F6E7099371E7A3
:10CF400063782A2B09D1059B02341A1D1B680592B0
:10CF5000002B0DDA01235B420AE000230134227822
:10CF6000303A092A04D80A214B4301349B18F6E7CA
:10CF700007935BE705AB0093301C291C3A1C134B4D
:10CF800000E000BF07E005AB0093301C291C3A1CF1
:10CF90000E4B00F08BF80390039B013300D06AE73F
:10CFA000BB895B0600D532E70B981FB0F0BDC046C9
:10CFB000F8D9010018DA010038DA01005EDA010060
:10CFC00062DA01000000000058DA01008BCD010098
:10CFD000F7B5171C01930A698B6800900C1C9342EB
:10CFE00000DA131C221C3B6043321278002A01D065
:10CFF00001333B6023689B0602D53B6802333B60EC
:10D00000062523681D401ED0231C43331B785A1E5F
:10D010009341226892061CD53020E1184031C87037
:10D02000211C5A1C45310978A21840320233D170B4
:10D030000FE0221C0123009801991932089EB04785
:10D04000431C0ED00135E3683A689B1A9D42F0DB21
:10D05000DAE7221C009801994332089DA847431C37
:10D0600002D10120404220E006232068E1683A68AE
:10D0700003400025042B03D18D1AEB43DB171D4021
:10D08000A3682269934201DD9B1AED180027AF4285
:10D090000ADA221C0123009801991A32089EB0472F
:10D0A000431CDED00137F2E70020FEBDF0B58BB0A7
:10D0B00006920A1C43320793059004920A7E0C1CC8
:10D0C000109B6E2A00D1A8E011D8632A22D009D87B
:10D0D000002A00D1B2E0582A00D0C2E045310A70DF
:10D0E0007C4A4FE0642A1DD0692A1BD0B9E0732A1C
:10D0F00000D1A7E009D86F2A29D0702A00D0B0E06B
:10D10000202209680A43226037E0752A1FD0782A56
:10D1100033D0A6E00E1C1A684236111D1960136840
:10D120003370A1E021681A68080606D4490604D5C0
:10D13000111D19600023D55E02E0111D19601568EC
:10D14000002D3BDA2D23049A6D42137036E02168DE
:10D150001A68080606D4490604D51568111D196019
:10D16000ADB202E0111D196015685A4B227E03937F
:10D170000A276F2A1DD108271BE0221C782145327F
:10D180001170554A19680392081D226818600D68CD
:10D19000100602D4500600D5ADB2D30702D5202325
:10D1A0001A4322601027002D03D1202322689A43BE
:10D1B0002260231C002243331A7002E00A27454BE9
:10D1C00003936368A360002B03DB0422216891436F
:10D1D0002160002D02D1049E002B0ED0049E281C3D
:10D1E000391CFFF759FC039B013E5B5C281C337024
:10D1F000391CFFF7CBFB051EF1D1082F09D123689D
:10D20000DB0706D563682269934202DC3023013EC6
:10D210003370049B9B1B23612BE009681A68080686
:10D2200007D4490605D5111D19601368A28A1A8012
:10D2300004E0111D1960136862691A600023049EDE
:10D24000236116E01A68111D196016680021301C50
:10D25000626800F0B5FA002801D0801B6060636846
:10D2600003E0261C42363270012323610023049A16
:10D270001370079B05980093211C069B09AAFFF7D2
:10D28000A7FE431C02D10120404221E023690598FA
:10D290000699321C079DA847431CF4D023689B07BE
:10D2A00005D4099BE068984212DA181C10E00025AA
:10D2B000E368099A9B1A9D42F3DA221C0123059820
:10D2C00006991932079EB047431CDCD00135EFE7C1
:10D2D0000BB0F0BD69DA01007ADA010038B500233D
:10D2E000064C051C081C236000F014FB431C03D1F2
:10D2F0002368002B00D02B6038BDC0467428002066
:10D3000038B50C1C0E25495F00F0ACFA002803DB91
:10D31000636D1B18636503E0A289024B1340A38170
:10D3200038BDC046FFEFFFFFF8B51E1C8B89051CFA
:10D330000C1C171CDB0505D50E23C95E0022022339
:10D3400000F0D2F9A289054B281C1340A3813A1C96
:10D350000E23E15E331C00F077F8F8BDFFEFFFFF0E
:10D3600038B50C1C0E25495F00F0BEF9A389421C9C
:10D3700003D1054A1340A38104E0802252011343E4
:10D38000A381606538BDC046FFEFFFFF08B50E23DF
:10D39000C95E00F0E1F808BD70B5051C0E1C141C38
:10D3A000002804D08369002B01D1FFF7EFFB234B4A
:10D3B0009C4201D16C6808E0214B9C4201D1AC68D1
:10D3C00003E0204B9C4200D1EC68A369A360A389D1
:10D3D0001B070AD52369002B07D023682269F6B200
:10D3E000981A636998420FDB08E0281C211C00F0A2
:10D3F0003FF80028F1D0012040421DE0281C211CEC
:10D4000000F046F90028F6D1A3680130013BA36083
:10D4100023685A1C22601E706369984205D0A38954
:10D42000301CDB0708D50A2E06D1281C211C00F071
:10D430002FF90028DFD1301C70BDC046F8D901009B
:10D4400018DA010038DA010038B5051C0020074C55
:10D450002060081C111C1A1CFBF7D0F9431C03D1D7
:10D460002368002B00D02B6038BDC04674280020F4
:10D47000354B70B51D68061C0C1C002D05D0AB6922
:10D48000002B02D1281CFFF781FB304B9C4201D1BD
:10D490006C6808E02E4B9C4201D1AC6803E02D4B38
:10D4A0009C4200D1EC68A3899AB2110723D4D1061B
:10D4B00007D409220120326037321343A38140424E
:10D4C00040E0530713D5616B002908D0231C443377
:10D4D000994202D0301C00F07FF9002363632422BC
:10D4E000A3899343A38100236360236923600822F7
:10D4F000A3891343A3812369002B0BD1A023A28905
:10D500009B00134080229200934203D0301C211CC8
:10D5100000F0FEF80123A289134005D00023A36088
:10D5200063695B42A36103E0910700D46369A36070
:10D5300000202369834205D1130603D540231A43F3
:10D54000A281013870BDC04660200020F8D90100DA
:10D5500018DA010038DA010038B50023064C051C42
:10D56000081C236000F0B6F9431C03D12368002B8C
:10D5700000D02B6038BDC04674280020F7B58A89DA
:10D58000051C0C1C13075ED44B68002B02DC0B6CD3
:10D59000002B1ADDE76A002F17D000232E682B60BE
:10D5A00080235B011A4001D0626D15E0281C216ABE
:10D5B0000123B847021C431C0ED12B68002B0BD053
:10D5C0001D2B01D0162B02D12E6000205EE04021E1
:10D5D000A3890B43A38159E0A3895B0706D5636840
:10D5E000D21A636B002B01D0236CD21A0023281CA3
:10D5F000216AE76AB847A389421C06D12A68002A33
:10D6000003D01D2A01D0162A19D100226260226996
:10D610002260DB0405D5431C02D12B68002B00D10E
:10D620006065616B2E600029CFD0231C4433994282
:10D6300002D0281C00F0D0F80020606326E04022D1
:10D640001343A38122E00F69002FBED00B680F6047
:10D65000DB1B01930023920700D14B69A360019B60
:10D66000002BB2DD281C216A3A1C019BA66AB04738
:10D67000002806DC40220120A38940421343A381F5
:10D6800004E0019B3F181B1A0193E8E7FEBD000070
:10D6900038B50B69051C0C1C002B01D100201CE0C7
:10D6A000002804D08369002B01D1FFF76FFA0B4BE0
:10D6B0009C4201D16C6808E0094B9C4201D1AC68E6
:10D6C00003E0084B9C4200D1EC680C22A35E002BC7
:10D6D000E4D0281C211CFFF751FF38BDF8D9010008
:10D6E00018DA010038DA010038B5051C0020074CB3
:10D6F0002060081C111C1A1C00F004F9431C03D103
:10D700002368002B00D02B6038BDC0467428002051
:10D71000F0B58B8991B09B0706D50B1C47330B6086
:10D720000B6101234B6145E00C1C0E23C95E061CF6
:10D73000002904DA8023A5891D4010D10CE001AA3C
:10D7400000F0A4F80028F5DBF023029D1B021D4029
:10D75000194BED186B425D418027FF0001E0002569
:10D760004027301C391CFFF7A3FA00280CD1A389ED
:10D770009A051FD402221343A381231C473323603D
:10D7800023610123636115E080220C4BB362A389FE
:10D7900020601343A38120616761002D0AD00E230E
:10D7A000E15E301C00F084F8002803D00122A38938
:10D7B0001343A38111B0F0BD00E0FFFF09CB0100CE
:10D7C000C9B28218904204D003788B4202D0013053
:10D7D000F8E700207047000030B500293ED004393A
:10D7E0000B68002B00DAC9181D4A1368141C002BA3
:10D7F00002D14B60116031E099420DD208680A18DD
:10D800009A4203D11368C3180B6053684B602160C0
:10D8100024E08A4203D8131C5A68002AF9D11D68F3
:10D820005C198C420BD1096869185818196090422C
:10D8300014D110685268091819605A600EE08C42C1
:10D8400002D90C23036009E008680C18944203D144
:10D8500014685268001908604A60596030BDC046BB
:10D860006828002038B5051C0020074C2060081CE3
:10D87000111C1A1CFAF7D0FF431C03D12368002B9C
:10D8800000D02B6038BDC0467428002038B5002376
:10D89000064C051C081C111C236000F023F8431CD7
:10D8A00003D12368002B00D02B6038BD74280020E2
:10D8B00038B50023064C051C081C236000F01AF83C
:10D8C000431C03D12368002B00D02B6038BDC04619
:10D8D0007428002058220120014B40421A607047F2
:10D8E0007428002058220120014B40421A607047E2
:10D8F000742800205822024B00201A607047C0464E
:10D900007428002058220120014B40421A607047C1
:10D9100074280020044A1368002B03D018181060E4
:10D92000181C7047014BF9E76C280020782800206C
:10D93000F8B5C046F8BC08BC9E467047F8B5C0466E
:10D94000F8BC08BC9E467047430000000020002041
:10D95000010002000B09080A0100000000509D00B0
:10D9600000900040090100001500000016000000B2
:10D9700000000000020000008813000000A000402A
:10D980000A0200001700000018000000000000005C
:10D9900002000000881300004572726F7220636FEE
:10D9A00064653A20256C75206C696E65206E756D16
:10D9B0003A20256C750A000025643A2025640A0087
:10D9C0007374617274696E672E2E2E0A0000000057
:10D9D000000003030000000000000003000000003E
:10D9E00000000003000000009ECADC240EE5A9E050
:10D9F00093F3A3B50000406E00000000000000009B
:10DA00000000000000000000000000000000000016
:10DA10000000000000000000000000000000000006
:10DA200000000000000000000000000000000000F6
:10DA300000000000000000000000000000000000E6
:10DA400000000000000000000000000000000000D6
:10DA50000000000000000000232D302B2000686C27
:10DA60004C00656667454647003031323334353601
:10DA7000373839414243444546003031323334353A
:0CDA800036373839616263646566000067
:08DA8C0034A6FF7F0100000039
:10DA940000000000F8D9010018DA010038DA0100AA
:10DAA4000000000000000000000000000000000072
:10DAB40048D9010000000000000000000000000040
:10DAC4000000000000000000000000000000000052
